:020000040800F2
:1000000000200020A9440008F5440008F544000839
:1000100000000000000000000000000000000000E0
:10002000000000000000000000000000F54400088F
:1000300000000000000000000D6B0008897300083C
:10004000F5440008F5440008F5440008F5440008AC
:10005000F5440008F5440008F5440008F54400089C
:10006000F5440008F5440008F5440008F54400088C
:10007000F5440008F5440008F5440008F54400087C
:10008000F5440008F544000800000000F5440008AD
:10009000F5440008F5440008F54400080D08000880
:1000A000F5440008F5440008F5440008F54400084C
:1000B0005528000800000000F5440008000000007A
:1000C0005FF808F180B59AB000AF78607B685A7825
:1000D0005B23FB180F210A401A707B685B781A1C9F
:1000E000802313407B6500233B66A64ADE235B002A
:1000F000D2588023DB0513400BD0A24A80235B003B
:10010000D3588022D2051A43111C9E4A80235B00DB
:10011000D1507B681B781A1C5B23FB181B78D31803
:100120006D2B06DD7B681B78181C012100F02EF971
:1001300024E17B6D002B4FD0924A80235B00D35883
:100140000122134048D06623FB1800221A7031E0C8
:100150000023FB656523FB1800221A7016E07B68FC
:100160001B781A1C6623FB181B78D3186522BA1853
:10017000127885498A5C934201D10123FB6565238E
:10018000FB181A786523FB1801321A706523FB18D7
:100190001B78042B02D83B6E002BE0D0FB6D002BAC
:1001A00001D101233B666623FB181A786623FB18EE
:1001B00001321A706623FA185B23FB1812781B7839
:1001C0009A42C5D33B6E002B06D07B681B78181C67
:1001D000012100F0DBF8D1E07B6D002B54D06723C8
:1001E000FB187A6812781A706623FB1800221A70BE
:1001F00035E06723FB181A786623FB181B78033356
:100200007968CB185B7919066623FB181B780233D3
:100210007868C3185B791B0419436623FB181B78A5
:1002200001337868C3185B791B020B436621791888
:1002300009787868411849790B43191C514B920091
:10024000D1506723FB181A786723FB1801321A7004
:100250006623FB186622BA18127804321A707B687B
:100260001B796622BA1812789A42C2D37B681A7830
:100270000C23FB181A700C23FB1800225A700C2355
:10028000FB1800221A7174E06723FB187A68127851
:100290001A707B681A780C23FB181A705B23FB1802
:1002A0001B78802252421343DAB20C23FB185A7097
:1002B0007B681A790C23FB181A716623FB1800223D
:1002C0001A704FE06623FB181B786722BA18117862
:1002D0002C4A89008A58D1B20C22BA18D3180A1CA9
:1002E0005A716623FB181B7801336722BA181178FC
:1002F000244A89008A58120AD1B20C22BA18D3189B
:100300000A1C5A716623FB181B7802336722BA183D
:1003100011781C4A89008A58120CD1B20C22BA18E2
:10032000D3180A1C5A716623FB181B780333672203
:10033000BA181178134A89008A58120ED1B20C22C9
:10034000BA18D3180A1C5A716723FB181A78672346
:10035000FB1801321A706623FB186622BA1812784D
:1003600004321A707B681B796622BA1812789A4296
:10037000A8D30C23FB18181C00F03CF8BD461AB09B
:1003800080BDC046880900200000002080B594B0E0
:1003900000AF021CFB1D1A70BB1D0A1C1A7008233B
:1003A000FB18FA1D12781A700823FB1800221A7124
:1003B000BB1D1B78002B04D10823FB1840225A7068
:1003C00010E0BB1D1B78012B04D10823FB18202251
:1003D0005A7007E0BB1D1B78022B03D10823FB18C2
:1003E00010225A700823FB18181C00F003F8BD46B1
:1003F00014B080BD90B585B000AF78600F23FB18B6
:1004000000221A702B4B73221A702A4B6E225A70DC
:10041000284B70229A707B685A78264BDA707B687A
:100420001A78244B1A710F23FB1800221A7012E05D
:100430000F23FB181B7805330F22BA18127879683E
:100440008A1851791B4AD1540F23FB181A780F23AD
:10045000FB1801321A707B681B790F22BA181278C8
:100460009A42E5D30F23FB181B780533DBB20C222D
:10047000BC18104A101C191C00F018FF031C238024
:100480000F23FB181B7805330C22BA181288120AA6
:1004900092B2D1B2074AD1540F23FB181B7806330E
:1004A0000C22BA181288D1B2024AD154BD4605B006
:1004B00090BDC046880B002080B588B000AFF860C2
:1004C0007A600B23FB180A1C1A701F23FB180022EA
:1004D0001A701323FB1800221A701E23FB18002227
:1004E0001A701223FB1800221A701C23FB1800221A
:1004F0001A801A23FB1800221A8000237B610B2329
:10050000FB181B78062B01D801231DE11F23FB18C4
:1005100000221A7021E01F23FB181B78FA68D318F9
:100520001B78732B12D11F23FB181B780133FA6839
:10053000D3181B786E2B09D11F23FB181B780233AD
:10054000FA68D3181B78702B00D10FE01F23FB181B
:100550001A781F23FB1801321A701F23FB181A7810
:100560000B23FB181B78023B9A42D4DB1F23FB189A
:100570001A780B23FB181B78023B9A4201D1022305
:10058000E2E00B23FB181A781F23FB181B78D31A01
:10059000062B01DC0323D7E01F23FB181B78033352
:1005A000FA68D2181223FB1812781A701223FB185B
:1005B0001B785BB2002B02DA01237B6101E0002390
:1005C0007B611223FB181B780F221340DAB213232E
:1005D000FB1892001A707B69002B0ED00B23FB18BE
:1005E0001A781F23FB181B78D21A1323FB181B78C9
:1005F00007339A4201DA0323A6E01F23FB181B7876
:100600000433FA68D3181A787B681A707B68122250
:10061000BA1812785A707B681322BA1812781A71B5
:100620007B681B789AB27B685B789BB2D3189AB2CE
:100630001C23FB185232FF321A807B69002B5CD0DE
:100640001E23FB1800221A702DE01E23FB181B78B6
:100650001F22BA181278511D1E22BA1812788A1851
:10066000111CFA68521811787A68D3180A1C5A714A
:100670001F23FB181B785A1D1E23FB181B78D31849
:100680001A1CFB689B181B7899B21C23FB181C22B0
:10069000BA1812888A181A801E23FB181A781E238B
:1006A000FB1801321A701E23FA181323FB18127854
:1006B0001B789A42C9D31F23FB181B785A1D13239A
:1006C000FB181B78D3181A1CFB689B181B781B029D
:1006D00099B21F23FB181B789A1D1323FB181B7854
:1006E000D3181A1CFB689B181B789BB20A1C134377
:1006F0009AB21A23FB181A8016E01F23FB181B78E6
:100700000533FA68D3181B781B0299B21F23FB1814
:100710001B780633FA68D3181B789BB20A1C134364
:100720009AB21A23FB181A801C23FA181A23FB18F2
:1007300012881B889A4201D0042305E07B681A22A4
:10074000BA1812885A800023181CBD4608B080BD14
:1007500080B584B000AF78607B68FB60FB681B7875
:10076000181C002106F0FCFB114A80235B00D358C3
:100770000122134011D0FB685B78181C002106F0A1
:100780008FFE01F0D1FB031E02D1212004F010FDE9
:10079000FB685B78181C06F0F9FE054BC0229B58DD
:1007A000181C00F0B7FD031C181C05F005FADBE768
:1007B0008809002080B586B000AF78607B683B6117
:1007C00000237B611CE03B691B78181C002106F0AC
:1007D00067FE7B69DBB2DB18DBB2181C00F072F934
:1007E000031CFB60FB68013302D1132004F0E0FC22
:1007F0003B691B78181C06F0C9FE7B6901337B61DD
:100800007B69052BDFDDBD4606B080BD80B594B0A9
:1008100000AF0123FB64524B181C082104F0F4FEC6
:10082000031E24D04E4B9A6980235B02134010D0E4
:100830004C4B00221A704A4B4A4A1278111C4A4A01
:10084000525C9A62474B1B780133DAB2454B1A70FF
:1008500002E0464B00221A70414B181C082104F09C
:1008600005FF3F4B181C082104F0F4FE6EE03C4BE2
:10087000181C042104F0C8FE031E36D0384B181C87
:10088000042104F0E7FE364B5A6A4B23FB181A701A
:10089000364B1B78191C364B4B22BA1812785A5417
:1008A000324B1B780133DAB2304B1A702F4B1A7867
:1008B0002F493B1D081C111C1A1CFFF7FDFD031CD2
:1008C000FB64FB6C002B07D1284B00221A703B1DE8
:1008D000181CFFF7F7FB07E0FB6C042B04D1FF208B
:1008E0000021FFF753FD31E030E01D4B181C0221C1
:1008F00004F08AFE031E12D0194B181C022104F0CA
:10090000A9FE174B174A1278111C174A525C9A62BB
:10091000144B1B780133DAB2124B1A7016E0104BED
:10092000181C202104F070FE031E0FD00C4B181C65
:10093000202104F09BFE0A4B181C202104F08AFEA3
:10094000074B074A926901210A439A61044B044A02
:10095000D26908218A43DA61BD4614B080BDC04621
:100960000054004040000020880B0020410000207F
:10097000400B002080B500AF0C4A0D4B1A600B4BAA
:10098000C8331A1C0A4B5A600A4B084A1A60094BB2
:100990001B6800221A60074B1B6800225A60054B37
:1009A0001B6800229A60BD4680BDC04644000020FE
:1009B000100100200C01002080B500AF0F4B1B7808
:1009C000DBB2012B10D10E4B1B78012B01D102F0B1
:1009D000EFFF0C4B1B78DBB2012B01D102F0C6FDFF
:1009E000064B00221A7006E0044B1B78DBB2013B79
:1009F000DAB2024B1A70BD4680BDC0461901002014
:100A0000440500201A01002080B500AF164B174A9C
:100A10001A60174B07221A60164B164A1268FF21FC
:100A200009060A431A60144B134A126813490A4311
:100A30001A6001F0A7FF05F0ADF9FFF79BFF104B1F
:100A40001B78DBB20133DAB20D4B1A700D49CA23A1
:100A50005A010D4B081C002102F05AFE0A4B181CCB
:100A600006F046F8BD4680BD14E000E03F190100E5
:100A700010E000E01CED00E020ED00E00000FFFFD2
:100A80001901002025760008E804002080B500AF99
:100A9000094B0A4A1A60084B1A68094B1A60064B40
:100AA0001B6801225A71044B1B68181C02F0A0FB42
:100AB000FFF782FFBD4680BDF8040020C80100207A
:100AC000F404002090B587B002AF021CFB1D1A7021
:100AD000FB1D1B789AB2674980235C0480239B012D
:100AE0000093081C111C0222231C04F03FFDC04689
:100AF000604B181C022104F087FD031EF8D05D4BEB
:100B0000181C002104F066FDC0465A4B181C8021B9
:100B100004F07AFD031EF8D0564B181C512104F046
:100B200059FDC046534B181C802104F06DFD031E77
:100B3000F8D0FB1D1B789AB24E4980235C048023B9
:100B4000DB010093081C111C0122231C04F00EFD84
:100B5000002000210022642305F066F8FB1D1B78AD
:100B60009AB2444980235C0480239B010093081CB3
:100B7000111C0122231C04F0F9FCC0463D4B181C3B
:100B8000022104F041FD031EF8D03A4B181C02214B
:100B900004F020FDC046374B181C802104F034FDC2
:100BA000031EF8D0FB1D1B789AB2324980235C04E7
:100BB0008023DB010093081C111C0122231C04F07C
:100BC000D5FCFB1D1B789AB22A4980239C049023F4
:100BD0009B010093081C111C0222231C04F0C6FC7C
:100BE000C046244B181C042104F00EFD031EF8D04F
:100BF0000F23FC181F4B181C04F0FAFC031C237075
:100C0000C0461C4B181C042104F0FEFC031EF8D047
:100C10000E23FC18174B181C04F0EAFC031C23706D
:100C2000C046144B181C202104F0EEFC031EF8D023
:100C3000104B181C202104F00DFD0F23FB181B780E
:100C4000FF2B02D101235B4210E00F23FB181B781E
:100C50001B029AB20E23FB181B789BB213439AB265
:100C60000C23FB181A800C23FB181B88181CBD468C
:100C700005B090BD0058004080B588B000AF7860E6
:100C80000023FB610023BB6100237B6100233B61E8
:100C90000023FB60654B5B680C221340FB61FB6922
:100CA000042B07D0082B09D0002B31D17B68604A78
:100CB0001A6031E07B685E4A1A602DE05B4B5A682F
:100CC000F0239B031340BB61584B5A6880235B029F
:100CD00013407B61BB699B0C0233BB617B69002BBA
:100CE00005D1BB69534A5A437B681A6014E04F4BE5
:100CF000DB6A0F22134001333B614D48396907F02D
:100D000095FE031C1A1CBB695A437B681A6003E0FA
:100D10007B68474A1A60C046444B5B68F022134028
:100D2000FB61FB691B09FB61434AFB69D3181B7814
:100D3000DBB2FB607B681A68FB68DA407B685A604C
:100D40003A4B5A68E023DB001340FB61FB691B0A46
:100D5000FB61394AFB69D3181B78DBB2FB607B6807
:100D60005A68FB68DA407B689A60304B1A6B8023C4
:100D70005B00134003D17B68304ADA6010E02B4BF4
:100D80005A688023DB01134005D17B689B685A08B1
:100D90007B68DA6004E07B689B689A087B68DA60AD
:100DA000224B1B6B4022134003D17B68244A1A61FB
:100DB00003E07B68802212021A611C4B1B6B10221D
:100DC000134003D17B681A4A5A6103E07B681A68B2
:100DD0007B685A61154B1B6B0322134004D17B685F
:100DE0009A687B689A611EE0104B1B6B03221340CC
:100DF000012B04D17B681A687B689A6113E00B4B66
:100E00001B6B03221340022B04D17B688022120249
:100E10009A6108E0054B1B6B03221340032B02D1A0
:100E20007B68034A9A61BD4608B080BD001002404D
:100E300000127A0000093D0008000020809FD500C4
:100E40001280000080B582B000AF78600A1CFB1CE5
:100E50001A70FB1C1B78002B06D0084B074A5169FF
:100E60007A680A435A6106E0044B044A5269796879
:100E7000C9430A405A61BD4602B080BD001002401D
:100E800080B582B000AF78600A1CFB1C1A70FB1C96
:100E90001B78002B06D0084B074A91697A680A43F1
:100EA0009A6106E0044B044A92697968C9430A4092
:100EB0009A61BD4602B080BD0010024080B582B08C
:100EC00000AF78600A1CFB1C1A70FB1C1B78002BFF
:100ED00006D0084B074AD1697A680A43DA6106E00E
:100EE000044B044AD2697968C9430A40DA61BD46B5
:100EF00002B080BD0010024080B582B000AF7860C3
:100F00000A1CFB1C1A70FB1C1B78002B06D0084B1C
:100F1000074A11697A680A431A6106E0044B044AD9
:100F200012697968C9430A401A61BD4602B080BDA2
:100F30000010024090B587B000AF021CFB1D1A7074
:100F4000FB1D1A787649131C5B009B18DB00CB183D
:100F50005B68FB60FB68002B00D1DDE0714B1B7808
:100F6000DBB20133DAB26F4B1A706F4B1B68002B88
:100F70000AD1FB1D1A78131C5B009B18DB00684A22
:100F80009A18694B1A60C5E0674B1B687B61FB6868
:100F90003B61BBE03A697B695B68D31A3B613B69A3
:100FA000002B00DB88E07B695B69002B2CD07B6920
:100FB0005A69FB1D19780B1C5B005B18DB00584954
:100FC0005B181361FB1D1A787B6959695448131C1F
:100FD0005B009B18DB00C31810335960FB1D1A78A7
:100FE0004F49131C5B009B18DB00CB1810337A6948
:100FF0001A60FB1D1A78131C5B009B18DB00484A23
:101000009A187B695A6120E0FB1D1A78464B1968D3
:101010004348131C5B009B18DB00C3181033196096
:10102000414B1A68FB1D19780B1C5B005B18DB0039
:101030003B495B185361FB1D1A78131C5B009B181E
:10104000DB00374A9A18384B1A60FB1D1A78FB1DD3
:10105000197833480B1C5B005B18DB00C318103396
:101060001B6859683B69C9182D48131C5B009B1805
:10107000DB00C3185960FB1D1A782949131C5B005B
:101080009B18DB00CB1810331A68FB1D1978244815
:101090000B1C5B005B18DB00C31810331B6858681F
:1010A000FB1D19781E4C0B1C5B005B18DB00E31862
:1010B0005B68C31A53602DE03B69002B23DB7B691F
:1010C0001B69002B1FD1FB1D1A781549131C5B00EF
:1010D0009B18DB00CB1810337A695A60FB1D1A7815
:1010E000131C5B009B18DB000D4A9A187B691A6180
:1010F000FB1D1A7839690A48131C5B009B18DB003A
:10110000C318596006E07B691B697B617B69002B12
:1011100000D03FE7FFF750FCBD4607B090BDC0468A
:101120001C010020190100204C01002080B584B072
:1011300000AF021CFB1D1A70FB1D1A78131C5B000C
:101140009B18DB002C4A9B18FB602C4B1B78DBB2F6
:101150000133DAB2294B1A70FB685B69002B07D1A7
:10116000FB681B69002B03D1254B00221A603DE070
:10117000FB685B69002B14D1FB681A69204B1A606D
:101180001F4B1B6800225A61FB681B69FA681269D1
:101190005168FA6852688A185A60FB6800221A611E
:1011A00024E0FB681B69002B07D1FB685B69002208
:1011B0001A61FB6800225A6118E0FB685B69FA68F3
:1011C00012691A61FB681B69FA6852695A61FB6807
:1011D0001B69FA6812695168FA6852688A185A607D
:1011E000FB6800221A61FB6800225A61FFF7E4FBEA
:1011F000BD4604B080BDC0461C010020190100207E
:101200004C01002080B582B000AF1B4B1B687B6097
:1012100027E07B685B78002B0BD17B681B78181C60
:10122000FFF784FF7B6801229A707B68DB68984730
:1012300014E07B685B78012B10D17B681B78181C4D
:10124000FFF774FF7B689A687B685A607B681B783D
:10125000181CFFF76FFE7B68DB689847064B1B681E
:101260007B607B68002B03D07B685B68002BD0D051
:10127000BD4602B080BDC0464C01002080B500AF25
:10128000074B1B78DBB2012B06D9064B01221A70E3
:10129000054B01221A7001E0FFF7B4FFBD4680BD87
:1012A00019010020440500204605002080B584B0C7
:1012B00000AF78600A1CFB1C1A700E23FB1800227A
:1012C0001A800D23FB1800221A7014E00D23FB185E
:1012D0001B787A68D3181B7899B20E23FB180E225C
:1012E000BA1812888A181A800D23FB181A780D2351
:1012F000FB1801321A700D23FA18FB1C12781B78A8
:101300009A42E3D30E23FB181B88181CBD4604B079
:1013100080BDC04690B587B000AF786078680AF0AD
:101320005DF9031C0C1C181C211C00220D4B08F03D
:1013300091FE031C0C1C181C211C0AF0D5F9031C7F
:101340007B61094B3B617869396907F0C3FE031C77
:10135000181C08F0A7FA031CFB60FB68181CBD46AC
:1013600007B090BD00408F406F12833A80B588B0BF
:1013700000AFF860B9607A600023FB6143E00023AE
:10138000BB613AE000233B6100237B6123E0FA6903
:10139000131C5B009B189B001A1CFB689B187A6946
:1013A0009200D1587A69131C5B009B189B001A1C91
:1013B000BB689B18BA699200D358081C191C07F027
:1013C000C1FF031C3869191C07F008FD031C3B61B1
:1013D0007B6901337B617B69022BD8DDFA69131CC1
:1013E0005B009B189B001A1C7B689B18BA699200D3
:1013F0003969D150BB690133BB61BB69022BC1DDC7
:10140000FB690133FB61FB69022BB8DDBD4608B007
:1014100080BDC04680B588B000AFF860B9607A6022
:101420000023FB612EE000237B610023BB611DE0F4
:10143000FA69131C5B009B189B001A1CFB689B1825
:10144000BA699200D158BB699B00BA68D3181B686F
:10145000081C191C07F076FF031C7869191C07F09B
:10146000BDFC031C7B61BB690133BB61BB69022B03
:10147000DEDDFB699B007A68D3187A691A60FB6924
:101480000133FB61FB69022BCDDDBD4608B080BD99
:1014900090B587B000AFF860B9607A6000237B61D7
:1014A00016E07B699B007A68D4187B699B00FA6818
:1014B000D31819687B699B00BA68D3181B68081C8D
:1014C000191C07F08BFC031C23607B6901337B61D3
:1014D0007B69022BE5DDBD4607B090BD90B585B0B8
:1014E00000AFF860B9607A603B60F868B96808F0EE
:1014F0005BF8031C1C1C386A396808F055F8031C9B
:10150000201C191C07F01EFF031C1C1C7868B968FE
:1015100008F04AF8031C201C191C07F0DBFD031C13
:10152000181C396807F05AFC031C181CBD4605B08E
:1015300090BDC04680B582B000AF021CFB1D1A7082
:10154000064BFA1D1278111C1F220A4001219140FE
:101550000A1C1A60BD4602B080BDC04600E100E032
:1015600080B582B000AF021CFB1D1A70074AFB1D3C
:101570001B78191C1F230B40012199400B1C191CBF
:101580008023D150BD4602B080BDC04600E100E0DE
:1015900080B582B000AF00237B6007E00D4A7B6816
:1015A000D31800221A707B6801337B607B68462B5E
:1015B000F4D900237B6007E0074A7B68D318002238
:1015C0001A707B6801337B607B68462BF4D9BD467B
:1015D00002B080BDD00B0020180C002090B597B051
:1015E00000AF78600C1C101C191CFB1C221C1A700C
:1015F000BB1C021C1A707B1C0A1C1A70FFF7C8FF68
:101600000823FB1800221A700823FB1820221A71E5
:101610000823FB18E0225A700823FB181B793B654E
:1016200000237B6508E00823FA187B6DD31800229D
:101630005A717B6D01337B657A6D3B6D9A42F2D3B3
:101640007B68E1225202934200D16BE0E122520218
:10165000934219D89622D201934245D09622D201C4
:10166000934208D89622920193422CD0E122920113
:1016700093422FD0A0E09622120293423ED0E12264
:101680001202934244D097E0E1229202934267D043
:10169000E1229202934208D8FA22520293424BD09E
:1016A00096229202934251D086E0E122D2029342E6
:1016B0006CD0E1221203934200D172E0FA2292022E
:1016C000934258D078E00823FB185A790823FB1876
:1016D0005A7173E00823FB185B7910221343DAB2C6
:1016E0000823FB185A7169E00823FB185B79202254
:1016F0001343DAB20823FB185A715FE00823FB1882
:101700005B7930221343DAB20823FB185A7155E093
:101710000823FB185B7940221343DAB20823FB1835
:101720005A714BE00823FB185B7950221343DAB25D
:101730000823FB185A7141E00823FB185B796022EB
:101740001343DAB20823FB185A7137E00823FB1859
:101750005B7970221343DAB20823FB185A712DE02B
:101760000823FB185B79802252421343DAB2082324
:10177000FB185A7122E00823FB185B797022524251
:101780001343DAB20823FB185A7117E00823FB1839
:101790005B79602252421343DAB20823FB185A7174
:1017A0000CE00823FB185B79502252421343DAB253
:1017B0000823FB185A7101E0012334E00823FB18C9
:1017C0007A1C12785A740823FB18BA1C12785A76BD
:1017D0000823FB18FA1C12789A760823FB18181CA9
:1017E00000F024FF031E01D102231CE0C046104B71
:1017F0001B68002BFBD10F4AE1235B02101C191C54
:1018000003F002FA0C4B01221A600823FB181B7824
:10181000181C00F0E9FF031E01D1032303E0074B6E
:1018200001221A600023181CBD4617B090BDC046A7
:1018300054010020004400406001002064010020A9
:1018400080B594B000AF021CFB1D1A70BB1D0A1CB2
:101850001A701E4B1B68002B01D1012331E00823B5
:10186000FB18FA1D12781A70BB1D1B78002B04D1CF
:101870000823FB1800225A700BE0BB1D1B789B004D
:10188000DBB21A1C40231343DBB2DAB20823FB1885
:101890005A700823FB1800221A710823FB18181C21
:1018A00000F0C4FE031E01D102230AE00823FB1846
:1018B0001B78181C00F098FF031E01D1032300E0E1
:1018C0000023181CBD4614B080BDC0466401002032
:1018D00090B589B000AF78601A23FB1800221A80F7
:1018E0001F23FB1800221A701E23FB1800221A70F7
:1018F0001D23FB187A6812781A70E64B7B618323EC
:10190000DB053B61E44BFB601F23FB1800221A70D0
:10191000E1E21D23FB181B78653B452B00D9CCE287
:101920009A00DE4BD3181B689F461F23FB181B78B9
:101930007A68D3185B79DA001F23FB181B78013310
:101940007968CB185B799B001A431F23FB181B781F
:1019500002337968CB185B795B0013431F22BA18F6
:101960001278033279688A1852791343BB60BA68D7
:10197000CB4B1A60CB4B01221A609EE21F23FB184F
:101980001B787A68D3185B79DA001F23FB181B7861
:1019900001337968CB185B799B001A431F23FB182E
:1019A0001B7802337968CB185B795B0013431F22E5
:1019B000BA181278033279688A1852791343BB60D7
:1019C000BA68B94B1A60B94B01221A6075E21F233D
:1019D000FB181B787A68D3185B79DA001F23FB1891
:1019E0001B7801337968CB185B799B001A431F235E
:1019F000FB181B7802337968CB185B795B001343C3
:101A00001F22BA181278033279688A185279134360
:101A1000BB60BA68A64B1A60A64B01221A604CE262
:101A20001F23FB181B787A68D3185B79DA001F2311
:101A3000FB181B7801337968CB185B799B001A433C
:101A40001F23FB181B7802337968CB185B795B0086
:101A500013431F22BA181278033279688A18527910
:101A60001343181C07F03EFF021C934B1A60934B64
:101A700001221A6021E21F23FB181B787A68D31811
:101A80005B791B0299B21F23FB181B7801337A681C
:101A9000D3185B799AB21A23FB180A431A80884C30
:101AA0001A23FB1800229B5E181C07F01BFF031C67
:101AB000181C796907F00EFB031C23601F23FB1819
:101AC0001B7802337A68D3185B791B0299B21F2303
:101AD000FB181B7803337A68D3185B799AB21A2300
:101AE000FB180A431A80774C1A23FB1800229B5ECE
:101AF000181C07F0F7FE031C181C796907F0EAFAB6
:101B0000031C2360704B01221A60D6E11F23FB18CF
:101B10001B787A68D3185B791B0299B21F23FB18D4
:101B20001B7801337A68D3185B799AB21A23FB18B1
:101B30000A431A80654C1A23FB1800229B5E181C6E
:101B400007F0D0FE031C181C796907F0C3FA031CC8
:101B500023605F4B01221A60AFE11F23FB181B7843
:101B60007A68D3185B791B0299B21F23FB181B7884
:101B700001337A68D3185B799AB21A23FB180A43A7
:101B80001A80544C1A23FB1800229B5E181C07F085
:101B9000A9FE031C181C396907F09CFA031C23607A
:101BA0001F23FB181B7802337A68D3185B791B025A
:101BB00099B21F23FB181B7803337A68D3185B791B
:101BC0009AB21A23FB180A431A80434C1A23FB18B3
:101BD00000229B5E181C07F085FE031C181C396947
:101BE00007F078FA031C23603C4B01221A6064E181
:101BF0001F23FB181B787A68D3185B791B0299B2F4
:101C00001F23FB181B7801337A68D3185B799AB2CB
:101C10001A23FB180A431A80314C1A23FB1800229E
:101C20009B5E181C07F05EFE031C181C396907F048
:101C300051FA031C23602B4B01221A603DE11F2344
:101C4000FB181B787A68D3185B79DA001F23FB181E
:101C50001B7801337968CB185B799B001A431F23EB
:101C6000FB181B7802337968CB185B795B00134350
:101C70001F22BA181278033279688A1852791343EE
:101C8000181C07F02FFE021C174B1A60174B01227D
:101C90001A6012E1600BB6422FBAE84678BA000823
:101CA000A401002074010020A80100207801002078
:101CB000AC0100207C010020B00100208001002048
:101CC000C80A0020CC0A00208C010020D00A002085
:101CD00090010020BC0A0020C00A002084010020DE
:101CE000C40A002088010020B401002094010020D3
:101CF0001F23FB181B7802337A68D3185B791B0209
:101D000099B21F23FB181B7803337A68D3185B79C9
:101D10009AB21A23FB180A431A80784C1A23FB182C
:101D200000229B5E181C07F0DDFD031C181CF968DF
:101D300007F0D0F9031C23601F23FB181B787A6877
:101D4000D3185B791B0299B21F23FB181B78013350
:101D50007A68D3185B799AB21A23FB180A431A805F
:101D6000674C1A23FB1800229B5E181C07F0BAFD73
:101D7000031C181CF96807F0ADF9031C2360614BC4
:101D800001221A6099E01F23FB181B7802337A683E
:101D9000D3185B791B0299B21F23FB181B780333FE
:101DA0007A68D3185B799AB21A23FB180A431A800F
:101DB000554C1A23FB1800229B5E181C07F092FD5D
:101DC000031C181CF96807F085F9031C23601F2306
:101DD000FB181B787A68D3185B791B0299B21F2312
:101DE000FB181B7801337A68D3185B799AB21A23EF
:101DF000FB180A431A80454C1A23FB1800229B5EED
:101E0000181C07F06FFD031C181CF96807F062F935
:101E1000031C23603E4B01221A604EE01F23FB1877
:101E20001B787A68D3185B79DA001F23FB181B78BC
:101E300001337968CB185B799B001A431F23FB1889
:101E40001B7802337968CB185B795B0013431F2240
:101E5000BA181278033279688A1852791343181C19
:101E600007F040FD021C2B4B1A602B4B01221A601D
:101E700023E01E23FB1800221A7015E01E23FB1816
:101E80001B781F22BA1811781E22BA1812788A18E5
:101E900079688A185179214AD1541E23FB181A787F
:101EA0001E23FB1801321A701E23FB181B78032B0C
:101EB000E4D91A4B00221A71C0461D23FB181D22BB
:101EC000BA18127801321A701F23FB181F22BA1891
:101ED000127804321A707B681B791F22BA181278A4
:101EE0009A4200D215E57B681A780D4B1A700D4B9B
:101EF00000221A60BD4609B090BDC046FC0A002011
:101F0000000B002098010020040B0020080B00208B
:101F10009C010020B8010020A0010020A80C002096
:101F20005C0100201C00002080B582B000AF0023BF
:101F30007B602E4B00221A602D4B00221A602D4B25
:101F400000221A602C4B00221A602C4B00221A60CF
:101F50002B4B00221A602B4B00221A602A4B0022C6
:101F60001A602A4B00221A60294B00221A60294B62
:101F700000221A60284B00221A60284B00221A60A7
:101F800065200421FFF75CFC031C7B607B68002B51
:101F900005D170200521FFF753FC031C7B60164B15
:101FA0001B68002B1CD0154B1B68002B18D0144B42
:101FB0001B68002B14D0134B1B68002B10D0124B46
:101FC0001B68002B0CD0114B1B68002B08D0104B4A
:101FD0001B68002B04D07B68002B01D100F020F897
:101FE0007B68181CBD4602B080BDC0466801002059
:101FF0006C01002070010020740100207801002095
:102000007C010020800100208C0100209001002034
:1020100094010020980100209C010020A0010020D4
:10202000B0B5ACB000AF3B1C00221A603B1C0022D4
:102030005A603B1C00229A600023AC22BA1813603D
:10204000D24B1B68181C09F0FBFA031C0C1C181C53
:10205000211CCF4ACF4B08F03BFC031C0C1C181C66
:10206000211C09F041FB031CA822BA181360CA4BBB
:102070001B68181C09F0E4FA031C0C1C181C211C1A
:10208000C34AC44B08F024FC031C0C1C181C211C64
:1020900009F02AFB031CA422BA181360BF4AB82314
:1020A0005B00D358A022BA1813608023DB05596A5D
:1020B000BA4AB8235B00D150B84AB8235B00D35862
:1020C0009C22BA181360A823FB18186809F0B8FA04
:1020D000031C0C1C181C211C05F0B2FA031C0C1C60
:1020E000181C211C09F000FB021C7823FB181A6045
:1020F0007823FB1800225A60A823FB18186809F0FF
:102100009FFA031C0C1C181C211C05F0E7FA031C89
:102110000C1C181C211C09F0E7FA021C80231B066A
:102120005A407823FB189A607823FB180022DA6063
:102130007823FB18FE2292051A617823FB180022EF
:102140005A61A823FB18186809F07AFA031C0C1CC2
:10215000181C211C05F0C2FA031C0C1C181C211CA5
:1021600009F0C2FA021C7823FB189A617823FB1845
:102170000022DA61A823FB18186809F061FA031C31
:102180000C1C181C211C05F05BFA031C0C1C181CF1
:10219000211C09F0A9FA021C7823FB181A625423A7
:1021A000FB18FE2292051A605423FB1800225A6085
:1021B0005423FB1800229A605423FB180022DA6093
:1021C000A423FB18186809F03BFA031C0C1C181C0C
:1021D000211C05F035FA031C0C1C181C211C09F0ED
:1021E00083FA021C5423FB181A61A423FB181868F5
:1021F00009F026FA031C0C1C181C211C05F06EFAB1
:10220000031C0C1C181C211C09F06EFA021C542320
:10221000FB185A615423FB1800229A61A423FB186F
:10222000186809F00DFA031C0C1C181C211C05F081
:1022300055FA031C0C1C181C211C09F055FA021C31
:1022400080231B065A405423FB18DA61A423FB1891
:10225000186809F0F5F9031C0C1C181C211C05F06A
:10226000EFF9031C0C1C181C211C09F03DFA021C80
:102270005423FB181A627823F9185423FA183023D0
:10228000FB18081C111C1A1CFFF770F8444B1A6845
:102290002423FB181A60434B1A682423FB185A6046
:1022A000414B1A682423FB189A603023F918242321
:1022B000FA181823FB18081C111C1A1CFFF7AAF89F
:1022C0001823F9183A1C0C23FB18081C111C1A1CA3
:1022D000FFF7DEF89C23FB18186807F04BFB031C84
:1022E000181C324906F0F6FE031C1C1CA023FB1828
:1022F000186807F03FFB031C181C2C4906F0EAFE87
:10230000031C201C191C07F04FF9031CAC22BA183F
:102310001360274C264B1D680C23FB181B68181CE8
:10232000AC23FB18196807F00DF8031C281C191CB6
:1023300006F054FD031C23601E4C1E4B1D680C232D
:10234000FB185B68181CAC23FB18196806F0FAFF31
:10235000031C281C191C06F041FD031C2360164CAD
:10236000154B1D680C23FB189B68181CAC23FB182D
:10237000196806F0E7FF031C281C191C06F02EFD47
:10238000031C2360BD462CB0B0BDC046C80A002067
:10239000399D52A246DF913FCC0A002088090020D7
:1023A000A4010020A8010020AC01002000007A4414
:1023B000D40A0020D80A0020DC0A002080B588B0AA
:1023C00000AFF8607A600B23FB180A1C1A700B230D
:1023D000FB181B78062B01D8012323E11F23FB18D0
:1023E00000221A7021E01F23FB181B78FA68D3180B
:1023F0001B78732B12D11F23FB181B780133FA684B
:10240000D3181B786E2B09D11F23FB181B780233BE
:10241000FA68D3181B78702B00D10FE01F23FB182C
:102420001A781F23FB1801321A701F23FB181A7821
:102430000B23FB181B78023B9A42D4DB1B23FB18AF
:102440001F22BA1812781A701B23FB181A780B2354
:10245000FB181B78023B9A4201D10223E2E00B23D6
:10246000FB181A781B23FB181B78D31A062B01DCE8
:102470000323D7E01B23FB181B780333FA68D21819
:102480001A23FB1812781A701923FB181A22BA188B
:102490001278D2091A701A23FB181B789B09DAB23A
:1024A0001823FB1801210A401A701A23FB181B7805
:1024B0009B08DAB21723FB180F210A401A701E235B
:1024C000FB1800221A701923FB181B78002B11D05F
:1024D0001823FB181B78002B07D01E23FB1817228C
:1024E000BA18127892001A7008E01E23FB18042212
:1024F0001A7003E01E23FB1800221A700B23FB182E
:102500001A781B23FB181B78D21A1E23FB181B7882
:1025100005339A4201DA032384E01B23FB181B785E
:102520000433FA68D3181A787B681A707B681A2209
:10253000BA1812785A707B681E22BA1812781A716B
:102540007B685B789AB27B681B789BB2D3189AB28F
:102550001C23FB185232FF321A801F23FB18002263
:102560001A7027E01F23FB181B781B22BA18127859
:10257000511D1F22BA1812788A18111CFA685218B5
:1025800011787A68D3180A1C5A711F23FB181B781C
:102590007A68D3185B7999B21C23FB181C22BA18ED
:1025A00012888A181A801F23FB181A781F23FB1819
:1025B00001321A701F23FA181E23FB1812781B7899
:1025C0009A42CFD31B23FB181B785A1D1E23FB18DE
:1025D0001B78D3181A1CFB689B181B789AB214231B
:1025E000FB1812021A801B23FB181B789A1D1E234E
:1025F000FB181B78D3181A1CFB689B181B7899B220
:102600001423FB181422BA1812880A431A801423C0
:10261000FA181C23FB1812881B889A4201D0042345
:1026200000E00023181CBD4608B080BD90B597B0EF
:1026300000AF78605723FB1800221A700C23FB1898
:1026400073221A700C23FB186E225A700C23FB188D
:1026500070229A707B685A780C23FB18DA707B68BA
:102660001A780C23FB181A717B685B78DBB25BB2BB
:10267000002B1FDA5723FB1800221A7013E0572390
:10268000FB181B7805335722BA18127879688A1814
:1026900051790C22BA18D1545723FB181A785723B2
:1026A000FB1801321A707B681B795722BA1812780E
:1026B0009A42E4D35723FB185722BA1812780532EE
:1026C0001A705423FC180C23FA185723FB181B7894
:1026D000101C191CFEF7EAFD031C23805723FB186E
:1026E0001B785422BA181288120A92B2D1B20C2264
:1026F000BA18D1545723FB181A785723FB18013204
:102700001A705723FB181B785422BA181288D1B2BA
:102710000C22BA18D1545723FB181A785723FB18E8
:1027200001321A700C23FA185723FB181B78101C5F
:10273000191C00F005F8031C181CBD4617B090BD0D
:1027400080B584B000AF78600A1CFB1C1A70204B67
:102750001B68002B36D11E4B01221A60FB1C1A7815
:102760001C4B1A601C4B1D4A1A600F23FB180022D9
:102770001A7011E00F23FB181B780F22BA18127879
:1027800079688A181178154AD1540F23FB181A78E2
:102790000F23FB1801321A700F23FA18FB1C127852
:1027A0001B789A42E6D31C20FEF7DAFE0C4A0D4B4A
:1027B000101C191C012203F0A1FD1C20FEF7BAFE1B
:1027C000012300E00023181CBD4604B080BDC046B4
:1027D000540100205801002018000020180C00208F
:1027E000004400400701070080B586B000AF021C1E
:1027F000FB1D1A7000237B6100233B61124BFB60C1
:1028000000233B6117E0114B1B78FA1D12789A42A6
:1028100009D10F4B1B68002B05D10D4B01221A600B
:1028200001237B610BE0FA239B00181C02F064FC7F
:102830003B6901333B613A69FB689A42E3D37B69A8
:10284000181CBD4606B080BD881300005C01002046
:102850001C00002090B583B000AFFB1D01221A7050
:102860003D4B181C202103F08BFD031E35D03A4A46
:102870003A4B101C191C03F0ADFD374B181C2021DE
:1028800003F09CFD364B1B68002B61D0354B1B7849
:102890001A1C314B9B8C9BB2D9B2334B9954314BA0
:1028A0001B780133DAB22F4B1A702E4B1A78FC1DAD
:1028B0002D492E4B081C111C1A1CFFF77FFD031C11
:1028C0002370FB1D1B78002B42D1264B00221A706F
:1028D000264B181CFEF7FCFF3AE01F4B181C80210A
:1028E00003F04EFD031E33D01B4A214B101C191C54
:1028F00003F070FD184B181C802103F05FFD164A91
:102900001C4B1B681B789BB213851A4B1B685A1C07
:10291000184B1A60184B1B685A1C174B1A60164B41
:102920001A68164B1B689A4212DB1C20FEF718FE31
:10293000094A0F4B101C191C002203F0DFFC1C205D
:10294000FEF7F8FD0C4B00221A600D4B00221A60B6
:10295000BD4603B090BDC0460044004005010500DF
:1029600060010020BC010020D00B0020600C002082
:102970000701070018000020C001002058010020B6
:102980005401002080B584B000AF244B00221A709F
:10299000234BBB60234B7B600F23FB1800221A7074
:1029A00023E0BB680F22BA1812789A71BB68032221
:1029B0005A71BB687A685A620F23FB181B781A4A4F
:1029C000FF21D1540F23FB181B78184AFF21D15443
:1029D000BB682C33BB607B682C337B600F23FB18F8
:1029E0001A780F23FB1801321A700F23FB181B787B
:1029F0000E2BD6D90F23FB181B780C4AFF21D1547C
:102A0000BB680F22BA1812789A71BB6800225A620A
:102A1000074B034A1A60BD4604B080BDB00C0020CD
:102A2000C8010020F401002008050020C80C002087
:102A3000EC04002080B584B000AF021C3960FB1D9F
:102A40001A700E23FB1800221A700F23FB182F4A4E
:102A500012781A7047E00D23FB180E22BA1812786C
:102A60001A700E23FB181A780F23FB181B78D31843
:102A7000002B00DA01335B101A1C0E23FB181A70AE
:102A80000E23FB181B78224AD35CFA1D12789A4257
:102A900006D13B680E22BA1812781A70012330E072
:102AA0000E23FB181B781A4AD35CFA1D12789A423F
:102AB0000CD20F23FB180E22BA1812781A700E23AC
:102AC000FB180D22BA1812781A700CE00E23FB18AE
:102AD0001A780E23FB1801321A700F23FB180F22ED
:102AE000BA1812781A700E23FA180F23FB181278EE
:102AF0001B789A42AFD13B680E22BA1812781A702E
:102B00000023181CBD4604B080BDC046B00C002098
:102B1000C80C002080B584B000AF021CFB1D1A70E9
:102B20000F23FB18FA1D127852091A700E23FB1896
:102B3000FA1D12781F210A401A700F23FB181A7809
:102B40005E4B9200D358BB60BB68002B00D1A1E064
:102B50000D23FB180E22BA181278D2081A700D2312
:102B6000FB181B78DB00FF229A40131C1A1CBB6861
:102B7000134000D17BE00D23FB181B78DB00F02213
:102B80009A40131C1A1CBB68134030D00C23FB184E
:102B90000E22BA1812781A701EE00C23FB181B784C
:102BA0005BB201229A40131C1A1CBB6813400AD066
:102BB0000F23FB181B785B01DAB20C23FB181B7880
:102BC000D318DBB275E00C23FB181B78DBB2013B9A
:102BD000DAB20C23FB181A700C23FB1800229A5649
:102BE0000D23FB181B78DB0004339A42D5DA0E2341
:102BF000FB181B780422134009D00E23FB181B7806
:102C000003221343DAB20E23FB18043A1A700C2382
:102C1000FB180E22BA1812781A701EE00C23FB184B
:102C20001B785BB201229A40131C1A1CBB6813402C
:102C30000AD00F23FB181B785B01DAB20C23FB18B8
:102C40001B78D318DBB234E00C23FB181B78DBB203
:102C5000013BDAB20C23FB181A700C23FB1800227C
:102C60009A560D23FB181B78DB009A42D6DA0D2307
:102C7000FB181B78DB00DAB20E23FB18013A1A703E
:102C80000D23FB181B780D22BA18591E1170002B4A
:102C900000D064E70E23FB181F221A700F23FB18C5
:102CA0001B780F22BA18591E1170002B00D044E770
:102CB000FF23181CBD4604B080BDC046C40C0020D4
:102CC00080B584B000AF021CFB1D1A700E23FB18E8
:102CD00000221A700023BB600E23FB18FA1D127825
:102CE00052091A700F23FB1800221A7010E00F23EC
:102CF000FB181B7801229A40131C1A1CBB68134353
:102D0000BB600F23FB181A780F23FB1801321A70CF
:102D1000FB1D1B781F221340DBB20F22BA1812785A
:102D20009A42E4D30E23FB181A782C4B9200D25807
:102D3000BB681340BB600F23FB18FA1D12781A7092
:102D400036E00F23FB181B781F221340DBB2002B49
:102D500014D10F23FA18FB1D12781B789A420DD05C
:102D60000E23FB181B780E22BA18591C11701A1C5E
:102D70001A4B9200B968D1500023BB600F23FB1897
:102D80001B78174AD35CFF2B0BD00F23FB181B7843
:102D90001F22134001229A40131C1A1CBB681343C4
:102DA000BB600F23FB181A780F23FB1801321A702F
:102DB0000C4B1B780F22BA1812789A42C1D30E23FB
:102DC000FB181B780E22BA18591C11701A1C034BE1
:102DD0009200B968D150BD4604B080BDC40C00203B
:102DE00008050020B00C002080B582B000AF021CA6
:102DF000FB1D1A70FB1D1B785B09DBB21A1C094B0B
:102E00009200D358FA1D12781F210A4001219140E7
:102E10000A1C134001D1002300E00123181CBD4609
:102E200002B080BDC40C002080B584B000AF021C8D
:102E3000FB1D1A70BB1D0A1C1A70FB1D1B785B0959
:102E4000DBB21A1C134B9200D358FB60FB1D1B789E
:102E50001F22134001229A40131CDB431A1CFB68FB
:102E60001340FB60BB1D1A78FB1D1B781F210B4014
:102E70009A40131C1A1CFB681343FB60FB1D1B7854
:102E80005B09DBB21A1C034B9200F968D150BD46B6
:102E900004B080BDC40C002080B584B000AF021C1B
:102EA000FB1D1A70FB1D1A780E23FB18101C191C31
:102EB000FFF7C0FD031E58D10F23FB18314A1278CB
:102EC0001A7027E00F23FB181B780F22BA1812780C
:102ED000013A2D49895C2C4AD1540F23FB181B78E9
:102EE0000F22BA181278013A2849895C274AD1542E
:102EF0000F23FB181B780F22BA181278013A2449C5
:102F0000895C234AD1540F23FB181A780F23FB182E
:102F1000013A1A700E23FB181B780F22BA18127888
:102F20009A42CFD80E23FB181B78191C164BFA1D9A
:102F300012785A540E23FB181B781A1C134B0121CC
:102F400099540E23FB181B781A1C114BFF2199541E
:102F50000C4B1B780133DAB20A4B1A700E23FB18A4
:102F60001B78181CFFF7ACFE08E00E23FB181B783B
:102F7000064AD25C0132D1B2044AD154BD4604B0F3
:102F800080BDC046B00C0020C80C0020B40C00204E
:102F90000805002080B584B000AF021CFB1D1A702C
:102FA000FB1D1A780E23FB18101C191CFFF742FD9D
:102FB0000E23FB181B782A4AD25C013AD1B2284A68
:102FC000D1540E23FB181B781A1C254B9B5C002B3D
:102FD00042D10F23FB180E22BA1812781A7027E07C
:102FE0000F23FB181B780F22BA18127801321D49E3
:102FF000895C1C4AD1540F23FB181B780F22BA1886
:10300000127801321649895C154AD1540F23FB18F6
:103010001B780F22BA18127801321349895C124AC0
:10302000D1540F23FB181A780F23FB1801321A70A2
:103030000F23FB181A780D4B1B78013B9A42CFDB0C
:103040000A4B1B78013BDAB2084B1A700E23FB18AF
:103050001B78181CFFF734FEBD4604B080BDC04687
:10306000B40C0020C80C002008050020B00C002083
:10307000F0B587B000AF78601323FB187A68127937
:103080001A707B6800225A71524B1B687B617B6906
:103090001B791322BA1812789A421ED17A697B687A
:1030A0009A421AD07B69002B17D04B4B5C681B6887
:1030B0004A4A11685268A24202D80ED199420CD9EC
:1030C0007B695B891D1C00231E1C444B5C681B68CC
:1030D0005B197441404A136054601323FB181A783B
:1030E0000B23FB18101C191CFFF7A4FC0B23FB1867
:1030F0001B78181CFFF778FE031E012B14D10B233D
:10310000FB181B781A1C364B9B5C1A1C2C235A4349
:10311000344BD3187B610B23FB181B781A1C7B687C
:1031200099792F4B99543FE00B23FB181B781A1CFD
:103130007B6899792A4B99540B23FB181B78122230
:10314000BC18181CFFF7E6FC031C23700B23FB18AC
:103150001B78181C0121FFF767FE1223FB181B7850
:10316000FF2B16D1204B1B687B61204B01221A706C
:103170007B69002B03D11C4B7A681A6026E07B68C0
:103180007A695A627B697A689A62174B7A681A6020
:103190001CE01223FB181B78114AD35C1A1C2C2349
:1031A0005A43104BD3187B617B695B6AFB607B6879
:1031B000FA685A627B697A685A627B687A699A62AD
:1031C000FB68002B02D0FB687A689A62BD4607B0A4
:1031D000F0BDC046F8040020000500208009002052
:1031E00008050020C8010020F00400201A0100207A
:1031F00080B584B000AF78600F23FB1800221A70EE
:103200000E23FB187A6812791A700E23FB181A78AD
:103210000D23FB18101C191CFFF70CFC7B685B6A64
:10322000002B0BD17B689B6A002B07D14C4B0022F3
:103230001A600F23FB1801221A707BE07B689B6ADF
:10324000002B17D17B685A6A454B1A607B680022B5
:103250005A62434B1B6800229A62414B1B681B79E0
:103260000E22BA1812789A4264D00F23FB1801225A
:103270001A705FE07B685B6A002B1DD17B689B6ADC
:103280001B790E22BA1812789A4204D00F23FB1829
:1032900001221A7008E00D23FB181B781A1C7B68AA
:1032A0009B6A99792F4B99547B689B6A00225A62DA
:1032B0007B6800229A623DE07B689B6A1B790E2244
:1032C000BA1812789A420CD07B685B6A1B790E227E
:1032D000BA1812789A4204D00F23FB1801221A70F0
:1032E00018E07B689B6A1B790E22BA1812789A4202
:1032F00010D17B685B6A1B790E22BA1812789A4249
:1033000008D00D23FB181B781A1C7B689B6A9979DF
:10331000144B99547B689B6A7A68526A5A627B683C
:103320005B6A7A68926A9A627B6800225A627B685A
:1033300000229A620F23FB181B78012B0DD10D235D
:10334000FB181B781A1C074BFF2199540D23FB18FF
:103350001B78181C0021FFF767FDBD4604B080BD37
:10336000F00400200805002080B586B000AF021CE4
:10337000FB1D1A70BB1D0A1C1A70FB1D1B78002B4D
:1033800001D11423E1E0FB1D1B780F2B01D9012390
:10339000DBE0FB1D1B782C225A436E4BD3187B615C
:1033A0007B695B79032B01D10123CEE0BB1D1B7828
:1033B000402B01D90123C8E07B691B79BA1D127823
:1033C0009A4200D1C0E07B69DB79FF2B17D07B6983
:1033D000DB79DA00604BD318FB60FB689A787B6975
:1033E0009B799A420BD1FB68BA1D12781A707B69DF
:1033F0001B79BA1D12789A4201D90023A5E07B6996
:103400001B79181CFFF7C6FDBB1D1B78181CFFF7A6
:1034100043FD7B69BA1D12781A717B695B79002BB9
:1034200011D14E4B1B78DBB20133DAB24B4B1A7021
:103430007B69181CFFF7DCFE7B69181CFFF718FE80
:10344000FDF7BAFA80E07B695B79012B14D17B69C7
:103450001A79434B1B681B799A4200D874E03F4BA2
:103460001B78DBB20133DAB23C4B1A703D4B0122C0
:103470001A70FDF7A1FA67E07B69DB79FF2B41D079
:10348000364B1B78DBB20133DAB2344B1A707B69EE
:10349000DB79DA00304BD318FB60FB685B687B613B
:1034A0001323FB18FA6812781A70FB689A78FB6885
:1034B000DA7012E07B691B791322BA1812789A42EB
:1034C00008D91323FB187A6912791A707B699A79E3
:1034D000FB68DA707B695B6A7B617B69002BE9D1F1
:1034E000FDF76AFAFB681B781322BA1812789A4221
:1034F00008D0FB689A781323FB181B78101C191C42
:10350000FFF732FFFB1D1B782C225A43114BD318B7
:103510007B617B691B7AFF2B16D07B691B7A1A01B2
:10352000114BD318BB60BB685B790F229343DBB2AE
:10353000202B09D17B69181C02F0CCFDBA687B698D
:10354000101C191C02F0C0FC0023181CBD4606B05C
:1035500080BDC046C80100201809002019010020C4
:10356000F00400201A010020D0070020F0B585B03B
:1035700000AF4B4B1B68FB604A4B1B68BB60BB68D2
:10358000002B0ED0484B1B68FA689A4209D1474B72
:103590001B78DBB2012B04D8454B1B78DBB2002B28
:1035A00000D079E0434B00221A70FB1DFA681279B3
:1035B0001A70BB1DBA6812791A70FB685B79012B0F
:1035C0000AD0394BBA681A60BB6801225A71BB68CD
:1035D000181CFFF70DFE34E0BA1DFB1D12781B7896
:1035E0009A420ED2304BBA681A60FB68181CFFF77B
:1035F0003FFDBB68181CFFF7FBFDBB6801225A7139
:103600001FE0FA1DBB1D12781B789A4218D12A4B75
:1036100019685A68294B5C681B6899423BD1A242E1
:103620000ED1214BBA681A60FB68181CFFF720FD09
:10363000BB68181CFFF7DCFDBB6801225A7100E073
:1036400029E0194B1B681A79164B1B681B799A42A3
:103650000DD1154B1B685B891D1C00231E1C174BCD
:103660005C681B685B197441134A13605460FB6803
:103670001A68FB68DB689A4205D3FB68DB681B6845
:103680000F4A934204D0FB689B79181C03F0D0FFCB
:1036900003F032FA00E0C046BD4605B0F0BDC046BA
:1036A000F8040020F0040020F40400201901002098
:1036B000180100201A0100200005002080090020C8
:1036C000A5A55A5A80B582B000AF0F4B1B78DBB26C
:1036D0000133DAB20C4B1A700C4B1B68002B03D170
:1036E000FDF76AF900230AE0084B1B687B60074B73
:1036F0001B685A6A054B1A60FDF75EF97B68181C57
:10370000BD4602B080BDC04619010020EC04002077
:1037100080B588B000AFF860B9607A603B607B68C4
:103720004E4A13401A0A1C23FB181A801B23FB184D
:103730007A681A70FB68002B01D1FF238AE03B688E
:10374000002B01D1FF2385E01B23FB181B78402BA6
:1037500001D9FF237EE01C23FB181B88132B01D803
:10376000FF2377E0F968BA683B68081C111C1A1C33
:1037700003F0E4FD031C7B61FFF7A4FF031C3B6126
:103780003B69002B01D1FF2364E03B697A691A6031
:103790003B691B22BA1812781A711C23FB181A886D
:1037A000131C9B079B1A9B0004333A68D2183B6991
:1037B000DA603B69DB682A4A1A603B69012252429F
:1037C0001A623B6900225A623B6900229A627B6856
:1037D000244A13401A0D1E23FB181A801E23FB18BF
:1037E0001B88002B03D11E23FB180A221A803B6979
:1037F0001E22BA1812885A813B690022DA613B699D
:10380000FF221A723B6900221A613B6900225A6149
:103810003B6900229A613B69FF22DA711B23FB1886
:103820001B78181CFFF738FB7B68002B0DDB0E4B59
:103830001B78DBB20133DAB20B4B1A703B69181CF0
:10384000FFF716FCFDF7B8F802E03B6902225A7157
:103850003B699B79181CBD4608B080BD00FF0F0076
:10386000A5A55A5A0000FF7F1901002080B584B039
:1038700000AF021CFB1D1A70FB1D1B780F2B01D91A
:1038800001237AE0FB1D1B782C225A433D4BD318B1
:10389000FB60FB685B79032B01D101236DE0FB1D0D
:1038A0001B78002B01D1142367E0FB685B79012BA7
:1038B00006D1354B1B78DBB2002B01D015235CE021
:1038C000FB68DB79FF2B0ED0FB68DB792F4ADB002E
:1038D000D3189A78FB689B799A4204D1FB68DB790C
:1038E000181C03F099F9284B1B78DBB20133DAB2CC
:1038F000254B1A70FB685B79002B04D1FB68181C00
:10390000FFF776FC24E0FB685B79022B20D1FB6893
:103910001B6A013303D0FB68181C02F0F5F8FB6842
:103920001B7AFF2B03D0FB68181C02F0D3FBFB684B
:10393000DB69002B04D0FB68DB69181C03F0BEFCBC
:10394000FB68DB79FF2B03D0FB68181C03F022FA1D
:10395000FB6803225A710E4B01221A70FB681B7917
:10396000181CFFF717FB0B4B1A68FB685A62094BD0
:10397000FA681A60FDF720F80023181CBD4604B051
:1039800080BDC046C8010020190100201809002090
:103990001A010020EC04002080B500AF034B1B6827
:1039A0009B79181CFFF762FFBD4680BDF80400201C
:1039B00080B582B000AF384B1B78012B04D102F0E8
:1039C00095F9354B00221A70344B1B78012B04D12A
:1039D000FDF718FC314B00221A704BE003F082F81F
:1039E0002F4B5B78381C2E4ADB000421D3185A1861
:1039F000031C03CA03C32A4B5B780133181C05213F
:103A000005F08AF90B1CDAB2254B5A70244B1B784F
:103A1000013BDAB2224B1A7003F05EF83B1C1B78B4
:103A2000022B0ED002DC012B05D022E0032B11D09B
:103A3000042B15D01DE03B1C5B78181C03F0A6FD81
:103A400018E03B1C5A783B1C5B68101C191C01F0E9
:103A50004FFC0FE03B1C5B78181C03F047FB09E0B0
:103A60003B1C5A783B1C5B68101C191C03F07AF84D
:103A700000E0C0460A4B1B78002BAFD103F032F8B0
:103A8000074B1B78002B02D1064B00221A7003F063
:103A900023F8BD4602B080BD450500204605002044
:103AA0001805002044050020B0B582B000AFFCF737
:103AB000ABFF01200121022203F0B4FC031C1A1CFD
:103AC000FD4B1A7001200121022203F0ABFC031C04
:103AD0001A1CFA4B1A7001200121022203F0A2FCE9
:103AE000031C1A1CF64B1A7001200121022203F05C
:103AF00099FC031C1A1CF34B1A70012001210222AD
:103B000003F090FC031C1A1CEF4B1A7001200121DA
:103B1000022203F087FC031C1A1CEC4B1A700120D4
:103B20000121022203F07EFC031C1A1CE84B1A70D0
:103B300001200121022203F075FC031C1A1CE54B35
:103B40001A7001200121022203F06CFC031C1A1CD4
:103B5000E14B1A7001200121022203F063FC031CD7
:103B60001A1CDE4B1A7001200121022203F05AFCBC
:103B7000031C1A1CDA4B1A7001200121022203F0E7
:103B800051FC031C1A1CD74B1A7001200121022280
:103B900003F048FC031C1A1CD34B1A7000200021B0
:103BA00003F07EF9031C1A1CD04B1A700020002170
:103BB00003F076F9031C1A1CCD4B1A70FC1DCD497D
:103BC000CD4ACE4DCE4B081C111C2A1CFFF7A0FD80
:103BD000031C2370CB49CC4AC84CCC4B081C111C8D
:103BE000221CFFF795FDCA49C74AC44CC94B081CA3
:103BF000111C221CFFF78CFDC749C84ABF4CC84B9B
:103C0000081C111C221CFFF783FDC649C64AC74C7D
:103C1000C74B081C111C221CFFF77AFDC149C54A7D
:103C2000C24CC54B081C111C221CFFF771FDBD497D
:103C3000C24ABE4CC24B081C111C221CFFF768FD77
:103C4000B849C04AC04CC14B081C111C221CFFF7CC
:103C50005FFDB449BB4ABC4CBD4B081C111C221C67
:103C6000FFF756FDAF49BB4ABB4CBC4B081C111CAF
:103C7000221CFFF74DFDAB49B94AB74CB94B081CA4
:103C8000111C221CFFF744FDA649B74AB24CB74BA2
:103C9000081C111C221CFFF73BFDA249B44AB54C7D
:103CA000B54B081C111C221CFFF732FD9D49B34A7D
:103CB000B04CB34B081C111C221CFFF729FD99497D
:103CC000B04AAC4CB04B081C111C221CFFF720FD65
:103CD0009449AE4AA74CAE4B081C111C221CFFF79E
:103CE00017FDAC4A80235B00D35801229343191C73
:103CF000A84A80235B00D1507C4B1A787E4B1A7007
:103D00007B4B1A787C4B5A70844B00221A61834B90
:103D1000012252425A60814B00229A607F4B01225D
:103D20005242DA607D4B01221A607C4B01225A62BA
:103D30007A4B01229A61794B0022DA61774B01229A
:103D400052421A62754B01225A61744B02229A63E5
:103D5000724B0022DA62714B01221A636F4B01220F
:103D60005A636E4B01229A626C4B0322DA646B4BEE
:103D700000221A64694B012252425A64674B0122A5
:103D80009A64664B0122DA634B4B1978634B5022DD
:103D900099544A4B1978614B51229954484B1978E0
:103DA0005E4B52229954504B19785C4B53229954D4
:103DB0004F4B1978594B58229954584B64225A65E5
:103DC000594B0822DA61584B734A5A60564B734A72
:103DD0009A60554B724ADA60724B1A68524B9A617C
:103DE000714B1A68504B5A614F4B704A1A604E4BD8
:103DF0006F4A1A61314B19784B4B21229954324B3F
:103E00001978494B20229954374B1978464B222276
:103E10009954454B00225A62344B1978424B282260
:103E20009954444B0422DA61424B624A5A60414B36
:103E3000614A9A603F4B574ADA60604B1A683D4BC3
:103E40009A615F4B1A683B4B5A613A4B5D4A1A6064
:103E5000384B5D4A1A61184B1978364B2122995418
:103E6000184B1978334B202299541F4B1978314B3A
:103E7000222299542F4B00225A621C4B19782D4B49
:103E8000282299542D4B1022DA612C4B4F4A5A604C
:103E90002A4B4F4A9A60294B4E4ADA604E4B1A68B9
:103EA000264B9A614D4B1A68244B5A61234B4C4A5E
:103EB0001A60224B96E0C0464805002049050020C4
:103EC0004A0500204B0500204C0500204D05002030
:103ED0004E0500204F050020500500205105002010
:103EE00052050020530500205405002055050020F0
:103EF00056050020254500085C0500200140000013
:103F0000D81500205107000858050020D80D0020C2
:103F1000B5070008D81E00205D4E0008600500208F
:103F2000D811002005640008BC05002002400000F4
:103F3000D81C0020E8050020D81D00201406002011
:103F4000D81200204006002003400000D8170020AF
:103F5000D81B00209806002004400000D81900203B
:103F6000C4060020D8160020F0060020D818002033
:103F70001C07002005400000D81F00204807002033
:103F8000D81A002074070020D8130020A0070020B2
:103F9000D814002088090020A00900209C090020D6
:103FA000980900202800002030BA0008980A002054
:103FB000A4090020900900208C0900202400002082
:103FC0002CBA0008940A002094090020B0090020AF
:103FD000AC090020A80900202C00002034BA0008F9
:103FE0009C0A0020DF4A1A61DF4B1978DF4B21223F
:103FF0009954DF4B1978DD4B20229954DD4B197809
:10400000DA4B22229954D94B00225A62DA4B1978A2
:10401000D64B28229954D94B4022DA61D74BD84A43
:104020005A60D64BD74A9A60D44BD74ADA60D34B02
:10403000D64A9A61D64B1A68D04B5A61CF4BD54AB3
:104040001A60CE4BD44A1A61D44B1978CB4B21223B
:104050009954D34B1978C94B20229954C54B1978E0
:10406000C64B22229954C54B00225A62C24B197882
:10407000C24B28229954CB4B2022DA61C94BCA4A41
:104080005A60C84BC94A9A60C64BC94ADA60C54BE8
:10409000C84A9A61C84B1A68C24B5A61C14BC74A99
:1040A0001A60C04BC64A1A61C64B1978BD4B212213
:1040B0009954C54B1978BB4B20229954AD4B1978B4
:1040C000B84B22229954B74B00225A62AA4B197856
:1040D000B44B28229954BD4B8022DA61BB4BBC4AB9
:1040E0005A60BA4BBB4A9A60B84BBB4ADA60B74BCE
:1040F000B24A9A61B94B1A68B44B5A61B34BB84A89
:104100001A60B24BB74A1A61AF4B1978AF4B2122F4
:104110009954B54B1978AD4B20229954954B197889
:10412000AA4B22229954A94B00225A62924B197829
:10413000A64B28229954AD4B80225200DA61AB4B3A
:10414000AB4A5A60A94BAB4A9A60A84BAA4ADA60BC
:10415000A64B904A9A61A94B1A68A44B5A61A34B8B
:10416000A74A1A60A14BA74A1A618D4B19789F4B39
:1041700021229954A44B19789C4B202299547D4BB1
:1041800019789A4B22229954984B00225A627A4B02
:104190001978964B282299549C4B80229200DA6120
:1041A0009A4B9B4A5A60994B9A4A9A60974B9A4A03
:1041B000DA609A4B1A68954B9A61994B1A68934B3F
:1041C0005A61924B974A1A60904B974A1A61974BE3
:1041D00019788E4B21229954954B19788B4B2022BC
:1041E0009954644B1978894B22229954874B0022A9
:1041F0005A62614B1978854B282299548D4B802245
:10420000D200DA618B4B8C4A5A608A4B8B4A9A6097
:10421000884B8B4ADA60874B714A9A61894B1A68DE
:10422000844B5A61834B884A1A60824B874A1A61D1
:104230006D4B19787F4B212299544E4B19787D4B49
:10424000222299547B4B01225A624B4B1978794BAD
:10425000282299547E4B80221201DA617C4B7D4AE0
:104260005A607B4B7C4A9A60794B7C4ADA60784B87
:10427000634A9A617A4B1A68754B5A61744B794A52
:104280001A60734B784A1A615F4B1978704B212280
:104290009954384B19786E4B222299546C4B012259
:1042A0005A62354B19786A4B282299546F4B8022F9
:1042B0005201DA616D4B6E4A5A606C4B6D4A9A60DE
:1042C0006A4B6D4ADA60694B564A9A616B4B1A68C1
:1042D000664B5A61654B6A4A1A60644B694A1A61B7
:1042E000534B1978614B21229954224B19785F4B1B
:1042F000222299545D4B01225A621F4B19785B4B65
:1043000028229954604B80229201DA615E4B5F4A09
:104310005A605D4B5E4A9A605B4B5E4ADA605A4B6C
:104320005D4A9A615D4B1A68574B5A61564B5C4A1D
:104330001A60554B5B4A1A610D4B1978524B21227A
:1043400099540C4B1978504B222299544E4B012210
:104350005A62094B19784C4B28229954FCF796FB6A
:10436000FEE7C046B40900204A05002014060020DC
:10437000530500205405002055050020400600206C
:10438000D0090020CC090020C8090020980A00208C
:104390003CBA0008900A0020D40900204C050020F7
:1043A0004E0500206C060020C0090020BC0900203A
:1043B000B8090020940A002038BA00088C0A0020AE
:1043C000C40900204B0500204D0500209806002060
:1043D000E0090020DC090020D809002044BA0008C8
:1043E000A00A0020E409002050050020C406002097
:1043F000F0090020EC090020E809002048BA000874
:10440000A40A0020F409002051050020F006002035
:10441000000A0020FC090020F809002020000020EC
:104420004CBA0008A80A0020040A00204F0500200A
:10443000520500201C070020100A00200C0A002052
:10444000080A002050BA0008AC0A0020140A002014
:1044500048070020200A00201C0A0020180A00201B
:1044600054BA0008B00A0020240A00207407002073
:10447000300A00202C0A0020280A002058BA000820
:10448000B40A0020340A0020A0070020400A0020BF
:104490003C0A0020380A00209C0A002040BA00088C
:1044A000B80A0020440A00200C488546002103E099
:1044B0000B4B5B58435004310A480B4B42189A424D
:1044C000F6D30A4A02E0002313600432084B9A42F2
:1044D000F9D301F0D7F8FFF7E7FAFEE70020002054
:1044E000A8BE0008000000203C0000204000002082
:1044F000D81F0020FEE7000080B582B000AF021C8C
:10450000FB1D1A70064BFA1D1278111C1F220A405F
:10451000012191400A1C1A60BD4602B080BDC04610
:1045200000E100E080B588B000AF7860A04BBB61CF
:104530007B687B6100F044F900F066F900F05EFAF8
:1045400000F0EEFA9B4AE1235B02101C191C00F0FC
:104550005BFB00F00DFC00F001FE00F0F1FDE1233B
:104560005B02181C002100220023FDF737F8031C12
:104570003B613B69002B02D0112000F019FEAA20FC
:104580000121FDF75DF9031C3B613B69002B02D063
:10459000112000F00DFE0020FCF794FA031C3B6193
:1045A0003B69013302D1122000F002FE0120FCF72A
:1045B00089FA031C3B613B69013302D1132000F0EF
:1045C000F7FD0220FCF77EFA031C3B613B690133D7
:1045D00002D1142000F0ECFD0320FCF773FA031C59
:1045E0003B613B69013302D1152000F0E1FD04205D
:1045F000FCF768FA031C3B613B69013302D11620CA
:1046000000F0D6FD0520FCF75DFA031C3B613B6919
:10461000013302D1172000F0CBFD674ADE235B0097
:10462000D3588022D2051A43111C634ADE235B0053
:10463000D1508023DB055B6AFB60FA68BB69D31845
:10464000BB60C0468023DB055A6ABB689A4207D22A
:10465000594A80235B00D2588023DB051340F1D0F8
:10466000554A80235B00D2588023DB05134002D1DA
:10467000182000F09DFD504ADE235B00D3584F4ABE
:104680001340191C4C4ADE235B00D1504A4AD62302
:104690005B0096218900D150474AD8235B009621C0
:1046A0008900D150444ADA235B0096218900D15019
:1046B000414ADC235B0096218900D1507B695B78FD
:1046C000181C02F013FD3C4ADE235B00D358802205
:1046D00092051A43111C384ADE235B00D150C046B4
:1046E000354A80235B00D358002BF9DA324A802305
:1046F0005B00D3585B0059082F4A80235B00D150E0
:104700006B23FB612CE02C4BFA699200C8218900D5
:10471000D1508023DB055B6AFB60FA68BB69D31864
:10472000BB60C0468023DB055A6ABB689A4205D24B
:10473000214A80235B00D358002BF3DA1E4BFA6921
:10474000920096218900D1501B4A80235B00D358E8
:10475000002B02DB192000F02BFDFB690133FB610C
:10476000FB696E2BCFD9144ADE235B00D25880231D
:104770009B051A40111C104ADE235B00D1500E4AE3
:10478000DE235B00D358802212061A43111C0A4A0A
:10479000DE235B00D15000F0EFFC7B691B78181C16
:1047A00002F0A4FCFFF7F8F8BD4608B080BDC04693
:1047B000102700000044004088090020FFFFFFBFD1
:1047C00080B582B000AF80231B03181C0121FCF7C9
:1047D00039FB3B1C01221A713B1C00229A713B1CC5
:1047E000C02292001A603B1C0022DA713B1C00229E
:1047F0005A71044A3B1C101C191C00F0F9FFBD46FD
:1048000002B080BD0008004880B58AB000AF01202A
:104810000121FCF753FB1423FB1800221A811423F7
:10482000FB1800225A801423FB18012252425A60BE
:104830001423FB186B4A1A801423FB1800229A7267
:104840008023DA051423FB18101C191C01F092FEBA
:104850008023DB05181C012101F032FF0220012119
:10486000FCF72CFB80239B02181C0121FCF7EAFAC1
:104870008023DB02181C0121FCF7E4FA2023FB183B
:1048800002221A712023FB1800229A712023FB18A0
:10489000C0221A602023FB180122DA712023FB18A2
:1048A00001225A719023DA052023FB18101C191CD1
:1048B00000F09EFF2023FB1803221A604A4A20239F
:1048C000FB18101C191C00F093FF9023DB05181C2B
:1048D0000621012201F052F89023DB05181C072164
:1048E000012201F04BF8404B181C0021012201F07D
:1048F00045F83D4B181C0121012201F03FF814231B
:10490000FB18181C01F0AEFE1423FB1800221A81BC
:104910001423FB1800225A801423FB18334A5A60D0
:104920001423FB182F221A801423FB1800229A72DA
:104930002F4A1423FB18101C191C01F01BFE3B1CF2
:1049400060221A803B1C00229A813B1C01225A8063
:104950003B1C01229A60264A3B1C101C191C01F0CA
:10496000F5FE234B181C082102F05EF8204A3B1C80
:10497000101C191C01F0BEFF1D4B181C082102F071
:104980007DF81B4B181C012101F0BAFE184B181CB6
:10499000012101F095FE10200121FCF78FFA14236C
:1049A000FB1800221A811423FB1800225A801423BA
:1049B000FB18104A5A601423FB182F221A80142364
:1049C000FB1800229A720C4A1423FB18101C191CA5
:1049D00001F0D0FD084B181C012101F071FEBD460D
:1049E0000AB080BD7FBBFFFF0004004850C3000039
:1049F00000040040FFFF00000010004080B58AB0B6
:104A000000AF2023FB18181C00F084FF3B1D181C6E
:104A100000F038FD80239B03181C0121FCF74EFA9F
:104A20008023DB02181C0121FCF70CFA2023FB1861
:104A300002221A712023FB1801229A712023FB18ED
:104A40000022DA712023FB1803225A712023FB185D
:104A5000C02292001A602F4A2023FB18101C191C38
:104A600000F0C6FE2B4B181C0821012200F086FF27
:104A7000284B181C0921012200F080FF264B181C2E
:104A800000F074FC244B181C002100F019FD3B1DA4
:104A900000225A613B1D00225A603B1D00229A6091
:104AA0003B1D0022DA603B1D58221A613B1D1B4A48
:104AB0001A603B1D00229A61174A3B1D101C191CED
:104AC00000F07AFC144B181C0421012200F014FDA4
:104AD000114B181C0221012200F00EFD0E4B181C78
:104AE0000821012200F008FD0B4B181C2021012297
:104AF00000F002FD1720FFF7FFFC074B181C0121F7
:104B000000F016FD044B181C012100F0D9FCBD4635
:104B10000AB080BD0004004800540040895E801047
:104B200080B58AB000AF2023FB18181C00F0F2FEFD
:104B30003B1D181C00F0A6FC8023DB03181C012180
:104B4000FCF7BCF98023DB02181C0121FCF77AF981
:104B50002023FB1802221A712023FB1801229A71CC
:104B60002023FB180022DA712023FB1803225A713C
:104B70002023FB18C02212011A60204A2023FB18B0
:104B8000101C191C00F034FE1C4B181C0A210122B9
:104B900000F0F4FE194B181C0B21012200F0EEFE70
:104BA000174B181C00F0E2FB154B181C002100F0FD
:104BB00087FC3B1D00225A613B1D00225A603B1DB1
:104BC00000229A603B1D0022DA603B1D0D4A1A60EC
:104BD0003B1D00229A610A4A3B1D101C191C00F063
:104BE000EBFB074B181C012100F0A2FC044B181C26
:104BF000012100F065FCBD460AB080BD00040048FC
:104C000000580040895E801080B58AB000AF78609F
:104C100039607B68534A934205D07B68524A93427D
:104C200001D0012399E07B68181C002101F04AFBA8
:104C300080239B02181C0121FCF704F97B68494A78
:104C4000934206D18023DB01181C0121FCF718F9DF
:104C500005E080239B02181C0121FCF72FF97B68DB
:104C6000404A93420ED19023DB05181C09210122F2
:104C700000F084FE9023DB05181C0A21012200F0BD
:104C80007DFE0DE09023DB05181C0221012200F0BF
:104C900075FE9023DB05181C0321012200F06EFE37
:104CA0002023FB1802221A712023FB1800229A717C
:104CB0002023FB180122DA712023FB1803225A71EA
:104CC0007B68284A934205D12023FB18C022D200DA
:104CD0001A6003E02023FB180C221A609023DA05E7
:104CE0002023FB18101C191C00F082FD3A680823D1
:104CF000FB181A600823FB1800225A610823FB18CE
:104D00000C221A610823FB180022DA600823FB1822
:104D100000229A600823FB1800225A607A68082350
:104D2000FB18101C191C01F01FFA7B680F4A181C95
:104D3000111C012201F0E2FA7B680A4A934203D176
:104D40001B20FFF7D9FB02E01C20FFF7D5FB7B6897
:104D5000181C012101F0B6FA0023181CBD460AB048
:104D600080BDC046003801400044004005010500F8
:104D700080B500AF264B1B6800221A60254B1B68CC
:104D800000221A60244B1B6800221A60234B1B6808
:104D900000221A60224B1B6800221A60214B1B68FC
:104DA00000221A60204B1B6800221A601F4B1B68F0
:104DB00000221A601E4B1B6800221A601D4B1B68E4
:104DC00000221A601C4B1B6800221A601B4B1B68D8
:104DD00000221A601A4B1B6800221A60194B1B68CC
:104DE00000221A60184B1B6800221A60174B1B68C0
:104DF00000221A60164B1B6800221A60154B1B68B4
:104E000000221A60144B1B6800221A60BD4680BD48
:104E10002CBA000830BA000834BA000838BA0008C2
:104E20003CBA000840BA000844BA000848BA000872
:104E30004CBA000850BA000854BA000858BA000822
:104E40005CBA000860BA000864BA000868BA0008D2
:104E50006CBA000870BA000874BA0008B0B590B017
:104E600002AF78600C23FB1800221A6000225A60FF
:104E700000229A600022DA6000233B630023FB6279
:104E8000944BBB627B687B627B6A58229B5C181CDC
:104E9000002102F065F8904A80235B00D35801227C
:104EA000134000D194E000237B638DE08B4B1B68A3
:104EB0001C68796A7A6B131C9B009B189B005B58DB
:104EC000181C04F00FFD031C201C191C04F03AFAF6
:104ED000031C1D1C824B1B681C68796A7A6B131CAF
:104EE0009B009B189B00CB185B68181C04F0FAFC15
:104EF000031C201C191C04F025FA031C281C191C77
:104F000003F06CFF031C1D1C764B1B681C68796A40
:104F10007A6B131C9B009B189B00CB1808331B68F3
:104F2000181C04F0DFFC031C201C191C04F00AFAF6
:104F3000031C281C191C03F051FF031C1D1C6A4B89
:104F40001B681C68796A7A6B131C9B009B189B007A
:104F5000CB1808335B68181C04F0C4FC031C201C2D
:104F6000191C04F0EFF9031C281C191C03F036FF70
:104F7000031C3B62386AF96ABA6A5C4C5C4B00936A
:104F8000231CFCF7ABFA031C181C03F00FFF031CD7
:104F9000FB61796A7A6B131C9B009B189B00CB18F2
:104FA00010331C68F96996239A0096231B01081C8C
:104FB000111C1A1C00F084F9011C0C23FB18A20020
:104FC000D1507B6B01337B637B6B032B00DC6DE784
:104FD000414A80235B00D2588023DB01134054D127
:104FE00000237B634EE07B6B012B12D002DC002B95
:104FF00005D02CE0022B16D0032B1ED027E00C236B
:10500000FB187A6B9200D158334AD6235B00D150FB
:1050100035E00C23FB187A6B9200D1582E4AD82326
:105020005B00D1502BE00C23FB187A6B9200D15817
:10503000294ADA235B00D15021E00C23FB187A6B5C
:105040009200D158244ADC235B00D15017E0224A59
:10505000D6235B0096218900D1501F4AD8235B00DC
:1050600096218900D1501C4ADA235B0096218900E1
:10507000D150194ADC235B0096218900D1507B6B0B
:1050800001337B637B6B032BADDD1A4B1249D622B8
:1050900052008A585A63174B0F49D82252008A5837
:1050A0009A63144B0C49DA2252008A58DA63114B86
:1050B0000949DC2252008A581A647B6A5B6D181C0D
:1050C000FCF728F9031C3B633B6B181C00F074FDD4
:1050D000E1E6C04600007A44880900202000002054
:1050E00024000020280000202C000020000016448E
:1050F000000016450004004080B584B000AF021CDB
:10510000BB1D1A800E23FB1800221A800B4B181CA3
:10511000002101F0BFFA094B181C01F0C7FA021C6C
:105120000E23FB181A800E23FA18BB1D12881B8849
:105130009A42F0D3BD4604B080BDC0460010004086
:1051400080B500AF044A80235B00101C191C0122AB
:1051500000F0F8FBBD4680BD0008004880B500AFF8
:10516000044A80239B00101C191C012200F0EAFB5A
:10517000BD4680BD0008004880B500AF044A8023CA
:105180005B00101C191C002200F0DCFBBD4680BD3A
:105190000008004880B500AF044A80239B00101C23
:1051A000191C002200F0CEFBBD4680BD000800485F
:1051B00080B58AB000AF021CFB1D1A70FA239B0059
:1051C0003B62FA235B00FB61FA235B00BB613B6A35
:1051D000181CFCF79FF8031C7B61FB69181CFCF78B
:1051E00099F8031C3B61BB69181CFCF793F8031C7E
:1051F000FB600B23FB18FA1D127812091A700A23A0
:10520000FB18FA1D12780F210A401A702B4ADE2370
:105210005B00D258FB1D1B781343802252001A43B7
:10522000111C264ADE235B00D150FFF7B3FFFFF7C6
:10523000A3FFFB68181C00F0BFFC2723FB1800220B
:105240001A7012E0FFF77CFF7B69181C00F0B4FCB9
:10525000FFF792FFFB68181C00F0AEFC2723FB1839
:105260001A782723FB1801321A702723FA180B2308
:10527000FB1812781B789A42E4D32723FB180022EC
:105280001A7012E0FFF75CFF3B69181C00F094FCF9
:10529000FFF772FFFB68181C00F08EFC2723FB1839
:1052A0001A782723FB1801321A702723FA180A23C9
:1052B000FB1812781B789A42E4D3BEE788090020D5
:1052C00080B584B000AFF860B9607A60FA68BB68F6
:1052D0009A4201D8BB6806E0FA687B689A4201D31B
:1052E0007B6800E0FB68181CBD4604B080BDC0466A
:1052F00080B584B000AF021C3960FB1D1A70FB1D25
:105300001B78132B01D9012328E0FB1D1B781A0100
:10531000144BD318FB60FB685B790F221340DBB2A0
:10532000022B01D0012319E0FB68DB88002B14D18C
:105330000D4B1B78DBB20133DAB20B4B1A70FB68F2
:105340003A681A60FB680122DA80FB68181C00F0DA
:105350003BFEFBF731FB002300E00723181CBD4692
:1053600004B080BDD00700201901002080B582B0B4
:1053700000AF78607B680F4A93420CD180239B0377
:10538000181C0121FBF7B8FD80239B03181C00218A
:10539000FBF7B2FD0BE08023DB03181C0121FBF7B8
:1053A000ABFD8023DB03181C0021FBF7A5FDBD46E8
:1053B00002B080BD0054004080B584B000AF78607A
:1053C00039600023FB607B681B68012293431A1C31
:1053D0007B681A607B681B68FB60FB68264A134089
:1053E000FB603B685A683B689B681B021343FA6882
:1053F0001343FB607B68FA681A603B681B681F4AAE
:105400001A407B681A617B681B6801221A437B681B
:105410001A600023FB607B68FA689A607B68FA6810
:10542000DA603B689A693B681B691343FB607B68E1
:10543000FA689A607B689B68802212021A437B6834
:105440009A603B68DB68FB607B681A68FB681A43FC
:105450007B681A607B685B68FB60FB68084A1340E6
:10546000FB603B685B69FA681343FB607B68FA6822
:105470005A60BD4604B080BDFFE0CF00FFFFFFF0E3
:10548000FF7FFF0780B582B000AF78607B680022A5
:105490001A607B6800225A607B6800229A607B68F1
:1054A0000022DA607B6800221A617B688022120287
:1054B0005A617B6800229A61BD4602B080BDC04639
:1054C00080B582B000AF78600A1CFB1C1A70FB1C10
:1054D0001B78002B06D07B681B6801221A437B686F
:1054E0001A6006E07B681B68012293431A1C7B68E4
:1054F0001A60BD4602B080BD80B584B000AFF860D0
:10550000B960FB1D1A70FB1D1B78002B06D0FB68D1
:105510001A68BB681A43FB681A6006E0FB681B68E0
:10552000BA68D2431A40FB681A60BD4604B080BD19
:1055300080B582B000AF78600A1CFB1C1A70FB1C9F
:105540001B78002B06D07B681B68074A1A407B68D3
:105550001A6006E07B681B68802292021A437B680F
:105560001A60BD4602B080BDFFFFFDFF80B586B06A
:1055700000AFF860081C111C7B600A23FB18021C9A
:105580001A800923FB180A1C1A7000237B61FB6830
:105590005B687B617B690E4A13407B610A23FB18C1
:1055A0001B889B059A0D0923FB181B781904FF2300
:1055B0001B040B401A437B681A433B6A13437A6906
:1055C00013437B61FB687A695A60BD4606B080BDB3
:1055D000009800FC80B582B000AF78600A1CFB1C0C
:1055E0001A70FB1C1A787B689A62BD4602B080BDB7
:1055F00080B582B000AF78607B685B6ADBB2181C54
:10560000BD4602B080BDC04680B584B000AF7860B2
:1056100039600023BB600F23FB1800221A707B68DF
:105620009B69BB60BB683A681340BB60BB68002BDA
:1056300004D00F23FB1801221A7003E00F23FB187C
:1056400000221A700F23FB181B78181CBD4604B0EB
:1056500080BDC04680B582B000AF786039607B689D
:105660003A68DA61BD4602B080BDC04680B582B0FE
:1056700000AF786039607B683A68DA61BD4602B095
:1056800080BDC04680B500AF1B4B1B4A126801218C
:105690000A431A60184B184A526818490A405A605F
:1056A000154B154A126816490A401A60124B124AE5
:1056B000126814490A401A600F4B0F4A5268124987
:1056C0000A405A600C4B0C4AD26A0F218A43DA62B4
:1056D000094B094A126B0D490A401A63064B064AE8
:1056E000526B01218A435A63034B00229A6000F0F7
:1056F0000FF8BD4680BDC046001002400CB8FFF850
:10570000FFFFF6FEFFFFFBFFFFFFC0FFACFEFFFF4A
:1057100080B582B000AF00237B6000233B60314B3B
:10572000304A1268802149020A431A602D4B1A68D8
:1057300080239B0213403B607B6801337B603B68A6
:10574000002B04D17A68A023DB019A42EED1254BCD
:105750001A6880239B02134002D001233B6001E0C2
:1057600000233B603B68012B38D11F4B11221A608C
:105770001C4B1C4A52685A601A4B1A4A52685A60AB
:10578000184B184A526819490A405A60154B154A75
:105790005268882149030A435A60124B114A126821
:1057A000802149040A431A60C0460E4B1A688023C0
:1057B0009B041340F9D00B4B0A4A526803218A43D9
:1057C0005A60084B074A526802210A435A60C04691
:1057D000044B5B680C221340082BF9D1BD4602B084
:1057E00080BDC0460010024000200240FFFFC0FF05
:1057F00080B586B000AF7860396000237B610023FC
:105800003B610023FB6000237B617CE07B6901221C
:105810009A40131C3B613B681B683A691340FB606C
:10582000FA683B699A426BD13B681B79012B03D024
:105830003B681B79022B34D17B689B687A695200E4
:10584000111C03228A40D2431A407B689A607B680D
:105850009A683B685B79191C7B695B0099400B1C5B
:105860001A437B689A607B689B889BB27A6992B284
:10587000111C01228A4092B2D24392B213409AB2D2
:105880007B689A807B689B889AB23B689B79191CDD
:105890007B699BB299400B1C9BB213439AB27B6805
:1058A0009A807B681B687A695200111C03228A4027
:1058B000D2431A407B681A607B681A683B681B7980
:1058C000191C7B695B0099400B1C1A437B681A60AA
:1058D0007B68DB687A6992B25200032191400A1C0E
:1058E000D2431A407B68DA607B68DA683B68DB7910
:1058F000191C7B695B0099400B1C1A437B68DA60BA
:105900007B6901337B617B690F2B00D87EE7BD4645
:1059100006B080BD80B582B000AF78607B68084A71
:105920001A607B6800221A717B6801225A717B68B9
:1059300000229A717B680022DA71BD4602B080BDF8
:10594000FFFF000080B582B000AF7860081C111C1A
:10595000BB1C021C1A807B1C0A1C1A707B1C1B7847
:10596000002B04D0BB1C1A887B689A6103E07B681B
:10597000BA1C12881A85BD4602B080BD80B584B0BD
:1059800000AF7860081C111CBB1C021C1A807B1C19
:105990000A1C1A700023FB600023BB607B1C1B7871
:1059A000BA1C128807210A4092009340FB60BB1C7E
:1059B0001B88DB089BB2181CBB1C1B88DB089BB236
:1059C0001A1C7B6808329200D358BA1C128807212F
:1059D0000A409200111C0F228A40D2431A40111C27
:1059E0007B68021C08329200D150BB1C1B88DB086C
:1059F0009BB21A1C7B6808329200D258FB68134392
:105A0000BB60BB1C1B88DB089BB21A1C7B6808327E
:105A10009200B968D150BD4604B080BD80B584B055
:105A200000AF786039603B68002B00D164E0344BF4
:105A30001B68002B06D17B683A681A62304B7A6883
:105A40001A6053E02E4B1B68BB603B68FB604AE06A
:105A5000FA68BB681B6AD31AFB60FB68002B2EDA5E
:105A6000BB689B6A002B0ED0BB689B6A7A685A623F
:105A7000BB689A6A7B689A627B68BA685A62BB683C
:105A80007A689A620AE01E4B1A687B685A621C4B5D
:105A90001B687A689A621A4B7A681A607B685B6A3C
:105AA0001A6AFB68D2187B681A627B685B6A7A683C
:105AB000526A116A7A68126A8A1A1A6216E0FB68D8
:105AC000002B0DDBBB685B6A002B09D17B68BA68D1
:105AD0009A62BB687A685A62FA687B681A6205E063
